:100000000C9434000C9451000C9451000C94510049
:100010000C9451000C9451000C9451000C94050167
:100020000C9451000C9451000C9451000C9451000C
:100030000C9451000C9451000C9451000C945100FC
:100040000C9451000C9451000C9485010C945F01A8
:100050000C9451000C9451000C9451000C945100DC
:100060000C9451000C94510011241FBECFEFD8E026
:10007000DEBFCDBF11E0A0E0B1E0EAE4F4E002C0F1
:1000800005900D92A830B107D9F722E0A8E0B1E0C1
:1000900001C01D92A031B207E1F70E9428010C9423
:1000A00023020C94000080E480937C00EAE7F0E0F7
:1000B00087E0808380818068808308958F7080646A
:1000C00080937C00EAE7F0E080818064808308957B
:1000D00080917A00002486FF0394802D08958091FA
:1000E000780020917900922F08950E945E000E946E
:1000F00068008115E1F30C946F000F931F93FC01CE
:1001000060837183428353832483358312861386ED
:100110001486158606831783DB012C9181E090E01D
:10012000AC0101C0440F0A95EAF7042F00950223A1
:100130000C93A281B3812C91068002C0880F991F75
:100140000A94E2F7822B8C93A481B5818C9190E084
:10015000068002C0959587950A94E2F781708087A2
:1001600081871F910F910895FF920F931F93CF9353
:10017000DF93EC01EC81FD81808190E00E8002C074
:10018000959587950A94E2F78170F82E89858F15E9
:1001900039F00E94F9006A877B878C879D87F986F2
:1001A0000E94F9000A851B852C853D85601B710B1B
:1001B000820B930B643171058105910560F0888590
:1001C0008F1549F0F88681E08F25DF91CF911F913F
:1001D0000F91FF90089580E0F8CF82E08093B00007
:1001E00094E09093B1008093700089EF8093B30006
:1001F00008952FB7F89460910801709109018091DA
:100200000A0190910B012FBF08951F921FB61F92F4
:1002100011248F939F93AF93BF9380910801909186
:100220000901A0910A01B0910B010196A11DB11D18
:100230008093080190930901A0930A01B0930B01E8
:10024000BF91AF919F918F911F901FBE1F901895E6
:10025000CDB7DEB72E970FB6F894DEBF0FBECDBF79
:100260000E94ED000E94530060E875E280E090E09B
:100270000E94B00178940E94F90005E010E023E2AA
:1002800030E045E250E064E270E07E018FEFE81A72
:10029000F80AC7010E947D0087010E94F900C80189
:1002A0000E94B400811521F080E091E00E94EF01EE
:1002B00080E00E94750081E00E947500EECF8F9370
:1002C0008FB78F939F93EF93FF93E0918E01F0E0B0
:1002D000E057FE4F80818093C60080918E01019689
:1002E0008F7780938E0190918F0180918E0198136A
:1002F00005C08091C1008F7D8093C100FF91EF9177
:100300009F918F918FBF8F9118951F921FB61F924B
:1003100011242F938F939F93EF93FF9380910D015F
:1003200020910C0190E083958F7790E028171906B3
:1003300071F0E0910D01F0E08091C600E25FFE4FA8
:10034000808380910D0101968F7780930D01FF913D
:10035000EF919F918F912F911F901FBE1F90189525
:100360009B01AC0184E0220F331F441F551F8A9567
:10037000D1F760E074E284EF90E00E940102C901CD
:10038000DA0101979093C5008093C400E1ECF0E09E
:10039000808188698083089520918F0190918E01DA
:1003A00030E023952F7730E092171306B9F03091A3
:1003B0008F0120918E01E0918F01F0E0E057FE4F18
:1003C000808380918F0101968F7780938F01321304
:1003D00005C08091C10080628093C1000895CF93D1
:1003E000DF93EC018881811108C08DE00E94CC016F
:1003F0008AE0DF91CF910C94CC0121960E94CC0130
:10040000F1CFA1E21A2EAA1BBB1BFD010DC0AA1F32
:10041000BB1FEE1FFF1FA217B307E407F50720F06D
:10042000A21BB30BE40BF50B661F771F881F991FE8
:100430001A9469F760957095809590959B01AC0131
:0A044000BD01CF010895F894FFCF2D
:08044A00436C69636B210000A3
:00000001FF
