:100000000C9434000C9451000C9451000C94510049
:100010000C9451000C9451000C9451000C94E60087
:100020000C9451000C9451000C9451000C9451000C
:100030000C9451000C9451000C9451000C945100FC
:100040000C9451000C9451000C9492010C946C018E
:100050000C9451000C9451000C9451000C945100DC
:100060000C9451000C94510011241FBECFEFD8E026
:10007000DEBFCDBF11E0A0E0B1E0EEE5FAE002C0E6
:1000800005900D92A036B107D9F722E0A0E6B1E0C5
:1000900001C01D92A836B207E1F70E9409010C9435
:1000A0002D050C94000080E480937C00EAE7F0E0EA
:1000B00087E0808380818068808308950F931F93F9
:1000C000FC016083718342835383248335831286CA
:1000D00013861486158606831783DB012C9181E035
:1000E00090E0AC0101C0440F0A95EAF7042F009597
:1000F00002230C93A281B3812C91068002C0880F49
:10010000991F0A94E2F7822B8C93A481B5818C917C
:1001100090E0068002C0959587950A94E2F7817079
:10012000808781871F910F910895FF920F931F93EE
:10013000CF93DF93EC01EC81FD81808190E00E8014
:1001400002C0959587950A94E2F78170F82E89850B
:100150008F1539F00E94DA006A877B878C879D872C
:10016000F9860E94DA000A851B852C853D85601B77
:10017000710B820B930B643171058105910560F061
:1001800088858F1549F0F88681E08F25DF91CF9122
:100190001F910F91FF90089580E0F8CF82E0809347
:1001A000B00094E09093B1008093700089EF809349
:1001B000B30008952FB7F8946091600170916101C8
:1001C00080916201909163012FBF08951F921FB625
:1001D0001F9211248F939F93AF93BF9380916001DF
:1001E00090916101A0916201B09163010196A11DFE
:1001F000B11D8093600190936101A0936201B0935F
:100200006301BF91AF919F918F911F901FBE1F906F
:100210001895CDB7DEB7CE55D1090FB6F894DEBF2D
:100220000FBECDBF0E94CE000E94530060E875E271
:1002300080E090E00E94BD0178940E94DA0084E59D
:10024000E0E0F1E0DE01119601900D928A95E1F770
:100250006E0185E5C80ED11CFE0131967F01560165
:10026000F7010681178124813581428153816081A4
:100270007181C7010E945E00FEE0EF0EF11CEC14DC
:10028000FD0471F784E5C82E81E0D82E0E94DA00C3
:10029000CE0101967C0100E010E0C7010E949500AC
:1002A000811589F01F930F93DF92CF92BF92AF9287
:1002B0000E943002C5010E94FC010F900F900F9028
:1002C0000F900F900F900F5F1F4F9EE0E90EF11CF3
:1002D0000630110511F7DACF8F938FB78F939F9365
:1002E000EF93FF93E091E601F0E0E851FE4F80814B
:1002F0008093C6008091E60101968F778093E60196
:100300009091E7018091E601981305C08091C100AA
:100310008F7D8093C100FF91EF919F918F918FBF4F
:100320008F9118951F921FB61F9211242F938F93B0
:100330009F93EF93FF93809165012091640190E07A
:1003400083958F7790E02817190671F0E091650189
:10035000F0E08091C600EA59FE4F808380916501EC
:1003600001968F7780936501FF91EF919F918F9117
:100370002F911F901FBE1F9018959B01AC0184E028
:10038000220F331F441F551F8A95D1F760E074E296
:1003900084EF90E00E940E02C901DA010197909368
:1003A000C5008093C400E1ECF0E08081886980831F
:1003B00008952091E7019091E60130E023952F7791
:1003C00030E092171306B9F03091E7012091E60171
:1003D000E091E701F0E0E851FE4F80838091E70172
:1003E00001968F778093E701321305C08091C10099
:1003F00080628093C1000895CF93DF93EC018881E0
:10040000811108C08DE00E94D9018AE0DF91CF916F
:100410000C94D90121960E94D901F1CFA1E21A2EA4
:10042000AA1BBB1BFD010DC0AA1FBB1FEE1FFF1F98
:10043000A217B307E407F50720F0A21BB30BE40BE8
:10044000F50B661F771F881F991F1A9469F760952F
:100450007095809590959B01AC01BD01CF010895E9
:10046000AEE0B0E0E6E3F2E00C94060586E08C83B3
:100470002B893C8929833A838FEF9FE78D839E8365
:10048000AE01495E5F4F6D897E89CE0101960E9463
:100490005402EF81F8852B893C89E20FF31F10820B
:1004A0002E96E2E00C942205ACE0B0E0EAE5F2E042
:1004B0000C94F9045C016B017A01FC01168217822D
:1004C000838181FFD3C12AE0522EF5012381F601F9
:1004D00023FD859123FF81916F01811509F42CC1C2
:1004E000853239F423FD959123FF91916F01953267
:1004F00029F4B50190E00E944F04E7CF30E0712C61
:1005000000E010E0103210F59B32C9F050F4903248
:10051000B9F09332C9F09E3261F516FD0DC1106439
:1005200005C09D3279F0903399F41160F60123FDF6
:10053000959123FF91916F019111E4CF23C0126037
:100540001460F4CF1860F2CF1061F0CF17FD1AC01D
:1005500080ED890F8A30F8F616FF05C0759C800D76
:100560001124782EE3CF059D800D1124082F1062F1
:10057000DDCF9C3611F41068D9CF9C3409F440C00B
:100580009836A1F2892F8F7D85548330D8F1933628
:1005900009F45FC0933709F46AC0933509F476C053
:1005A000943619F0993609F0A2C0F70117FF98C0E8
:1005B00061917191819191917F011F7697FF03C0A5
:1005C0000E94EE0410682AE030E04E014FEF841ADA
:1005D000940AA4010E949004682E681816FFD2C0E5
:1005E000812F8E7F671408F0CCC014FF1DC112FD4F
:1005F00011C11E7E972C812F867809F4CEC00FC1C1
:1006000031E094CF311509F1F8E0EF0EF11C8FE3E2
:10061000898391E0692E712C4E018FEF881A980A18
:100620001F7713FD04C06016710408F43FC0611405
:10063000710409F042C0011509F447CFB50180E209
:1006400090E00E944F040150F6CF44E0E40EF11C0C
:10065000DECFF70180818983F2E0EF0EF11C81E0AB
:10066000682E712C4E014FEF841A940AD9CFF701EE
:10067000819091907F01672D70E016FD02C06FEFB1
:100680007FEFC4010E9444043C01CACFF70181906E
:1006900091907F01672D70E016FD02C06FEF7FEF34
:1006A000C4010E9439043C011068BBCFB50180E24F
:1006B00090E00E944F040150B6CFF40117FD8591E0
:1006C00017FF81914F01B50190E00E944F0481E036
:1006D000011101C080E0081BF1E06F1A7108A7CF7B
:1006E00061917191872F880F880B982F65CF95376F
:1006F000C9F41F7E1C872AE030E0FC85F7FF3BC071
:10070000F70161917191819191917F014E014FEFBC
:10071000841A940AA4010E949004682E68181C850B
:100720001F775CCF812F897F8C87903799F058F4A1
:100730009835B9F09F36E1F0F501868197812C96C6
:10074000EFE00C9415059837B9F714FD06C020E1C9
:1007500030E0D3CF9C8590619C87EC85E460EC878A
:10076000F6CF14FF02C016601C8720E132E0C5CF2F
:1007700028E030E0C2CFF7016191719180E090E014
:10078000C4CF182F962C14FF36CFFE01E60DF11DB5
:100790008081803309F041C0197E13FD0EC010FF27
:1007A0004FC0762C901618F4700E7918902E802F6A
:1007B0008919091508F480E0980E901608F042C0D7
:1007C000091914FF41C0B50180E390E00E944F0475
:1007D00012FF09C088E590E011FD02C088E790E0B3
:1007E000B5010E944F046714D0F14E018FEF881AB3
:1007F000980A6A94FE013296E60DF11D3F01F3015D
:1008000082913F01B50190E00E944F046814790481
:10081000B1F711CF972C182FB8CF12FD02C09394C7
:10082000BCCF93949394B9CF972C182FE4CEB501F5
:1008300080E290E00E944F0483948016C0F3B7CF0B
:10084000892CFBCF00E0BDCF812F867861F280E25A
:1008500011FD8BE217FD8DE2B50190E0C2CFB5012D
:1008600080E390E00E944F047A94BDCF8FEF9FEF1A
:1008700066CFFC010590615070400110D8F780955B
:1008800090958E0F9F1F0895FC016150704001905C
:100890000110D8F7809590958E0F9F1F0895A3E0C3
:1008A000B0E0E5E5F4E00C940505182F99836A8320
:1008B0007B83DB0113968C9181FD09C01FEFBFEF95
:1008C000B983812F99812396E3E00C94210582FF5F
:1008D0001BC0EA81FB81268137818481958128179D
:1008E000390754F40190F081E02DCF010196AA81DF
:1008F000BB818D939D931083EA81FB8186819781D3
:10090000019686839783DDCFAA81BB811896ED91EE
:10091000FD911A97BD01812F0995892B69F3CECFDF
:10092000FA01AA27283051F1203181F1E8946F9320
:100930006E7F6E5F7F4F8F4F9F4FAF4FB1E03ED0C6
:10094000B4E03CD0670F781F891F9A1FA11D680F64
:10095000791F8A1F911DA11D6A0F711D811D911D97
:10096000A11D20D009F468943F912AE0269F11240C
:100970003019305D3193DEF6CF010895462F477070
:10098000405D4193B3E00FD0C9F7F6CF462F4F70CB
:10099000405D4A3318F0495D31FD4052419302D029
:1009A000A9F7EACFB4E0A6959795879577956795CF
:1009B000BA95C9F700976105710508959B01AC01CF
:1009C0000A2E06945795479537952795BA95C9F7F6
:1009D000620F731F841F951FA01D08959095809529
:1009E000709561957F4F8F4F9F4F08952F923F9243
:1009F0004F925F926F927F928F929F92AF92BF922F
:100A0000CF92DF92EF92FF920F931F93CF93DF93DA
:100A1000CDB7DEB7CA1BDB0B0FB6F894DEBF0FBE37
:100A2000CDBF09942A88398848885F846E847D8484
:100A30008C849B84AA84B984C884DF80EE80FD8086
:100A40000C811B81AA81B981CE0FD11D0FB6F894FC
:0E0A5000DEBF0FBECDBFED010895F894FFCFBD
:100A5E0024002500230004000000000000002400F4
:100A6E0025002300030000000000000024002500E4
:100A7E0023000200000000000000240025002300D7
:100A8E0001000000000000002400250023000000EB
:100A9E000000000000002A002B00290007000000C3
:100AAE0000000000427574746F6E3A2025750000C8
:00000001FF
