:100000000C9434000C9451000C9451000C94510049
:100010000C9451000C9451000C9451000C94050167
:100020000C9451000C9451000C9451000C9451000C
:100030000C9451000C9451000C9451000C945100FC
:100040000C9451000C9451000C9408020C94E201A1
:100050000C9451000C9451000C9451000C945100DC
:100060000C9451000C94510011241FBECFEFD8E026
:10007000DEBFCDBF11E0A0E0B1E0E8E6FBE002C0EA
:1000800005900D92A037B107D9F722E0A0E7B1E0C3
:1000900001C01D92A837B207E1F70E9428010C9415
:1000A000B2050C94000080E480937C00EAE7F0E065
:1000B00087E0808380818068808308958F7080646A
:1000C00080937C00EAE7F0E080818064808308957B
:1000D00080917A00002486FF0394802D08958091FA
:1000E000780020917900922F08950E945E000E946E
:1000F00068008115E1F30C946F000F931F93FC01CE
:1001000060837183428353832483358312861386ED
:100110001486158606831783DB012C9181E090E01D
:10012000AC0101C0440F0A95EAF7042F00950223A1
:100130000C93A281B3812C91068002C0880F991F75
:100140000A94E2F7822B8C93A481B5818C9190E084
:10015000068002C0959587950A94E2F781708087A2
:1001600081871F910F910895FF920F931F93CF9353
:10017000DF93EC01EC81FD81808190E00E8002C074
:10018000959587950A94E2F78170F82E89858F15E9
:1001900039F00E94F9006A877B878C879D87F986F2
:1001A0000E94F9000A851B852C853D85601B710B1B
:1001B000820B930B643171058105910560F0888590
:1001C0008F1549F0F88681E08F25DF91CF911F913F
:1001D0000F91FF90089580E0F8CF82E08093B00007
:1001E00094E09093B1008093700089EF8093B30006
:1001F00008952FB7F894609170017091710180910A
:100200007201909173012FBF08951F921FB61F9224
:1002100011248F939F93AF93BF938091700190911E
:100220007101A0917201B09173010196A11DB11DE0
:100230008093700190937101A0937201B093730148
:10024000BF91AF919F918F911F901FBE1F901895E6
:10025000CDB7DEB7C856D1090FB6F894DEBF0FBED2
:10026000CDBF0E94ED000E94530060E072EC81E07F
:1002700090E00E9433027894A9961CAE1DAE1EAE8B
:100280001FAEA9970E94F9002B013C0184E5E0E034
:10029000F1E0DE01119601900D928A95E1F75E0181
:1002A00025E5A20EB11CCE0101967C01DA2CCB2CE7
:1002B000F701068117812481358142815381608154
:1002C0007181C7010E947D00FEE0EF0EF11CEA146F
:1002D000FB0471F70E94F9004B015C019E012F5F46
:1002E0003F4F790100E010E0C7010E94B400811582
:1002F000A1F01F930F9384E591E09F938F93CF928A
:10030000DF920E94B5028D2D9C2D0E9472020F90EB
:100310000F900F900F900F900F900F5F1F4FFEE008
:10032000EF0EF11C06301105F9F6C401D501841950
:100330009509A609B70984369105A105B10598F17B
:100340009E012B593F4F790100E010E0F701219108
:1003500031917F01A4E6B0E00E9484022FEF33E0E8
:1003600040E050E00E9493025F934F933F932F939E
:100370001F930F932FE531E03F932F93CF92DF929E
:100380000E94B5028D2D9C2D0E947202C80101961B
:1003900001E010E00FB6F894DEBF0FBECDBF0297AC
:1003A000A9F62401350180E00E947500A7969FAF51
:1003B0008EAFA79781E00E947500A9969FAF8EAF80
:1003C000A99788CF8F938FB78F939F93EF93FF93C6
:1003D000E091F601F0E0E850FE4F80818093C60086
:1003E0008091F60101968F778093F6019091F70145
:1003F0008091F601981305C08091C1008F7D809394
:10040000C100FF91EF919F918F918FBF8F911895B0
:100410001F921FB61F9211242F938F939F93EF93D8
:10042000FF93809175012091740190E083958F77FF
:1004300090E02817190671F0E0917501F0E08091C5
:10044000C600EA58FE4F80838091750101968F7730
:1004500080937501FF91EF919F918F912F911F9044
:100460001FBE1F9018959B01AC0184E0220F331F23
:10047000441F551F8A95D1F760E074E284EF90E045
:100480000E949302C901DA0101979093C5008093FD
:10049000C400E1ECF0E080818869808308952091B8
:1004A000F7019091F60130E023952F7730E0921715
:1004B0001306B9F03091F7012091F601E091F701B0
:1004C000F0E0E850FE4F80838091F70101968F772E
:1004D0008093F701321305C08091C1008062809340
:1004E000C1000895CF93DF93EC018881811108C08A
:1004F0008DE00E944F028AE0DF91CF910C944F0271
:1005000021960E944F02F1CFA29FB001B39FC0017C
:10051000A39F700D811D1124911DB29F700D811D2F
:100520001124911D0895A1E21A2EAA1BBB1BFD01E7
:100530000DC0AA1FBB1FEE1FFF1FA217B307E407C2
:10054000F50720F0A21BB30BE40BF50B661F771F1A
:10055000881F991F1A9469F76095709580959095FA
:100560009B01AC01BD01CF010895AEE0B0E0EBEB23
:10057000F2E00C948B0586E08C832B893C892983DF
:100580003A838FEF9FE78D839E83AE01495E5F4F75
:100590006D897E89CE0101960E94D902EF81F8858E
:1005A0002B893C89E20FF31F10822E96E2E00C9417
:1005B000A705ACE0B0E0EFEDF2E00C947E055C0145
:1005C0006B017A01FC0116821782838181FFD3C1FE
:1005D0002AE0522EF5012381F60123FD859123FFA8
:1005E00081916F01811509F42CC1853239F423FD05
:1005F000959123FF91916F01953229F4B50190E017
:100600000E94D404E7CF30E0712C00E010E01032FB
:1006100010F59B32C9F050F49032B9F09332C9F022
:100620009E3261F516FD0DC1106405C09D3279F052
:10063000903399F41160F60123FD959123FF919178
:100640006F019111E4CF23C012601460F4CF1860E1
:10065000F2CF1061F0CF17FD1AC080ED890F8A30FC
:10066000F8F616FF05C0759C800D1124782EE3CF97
:10067000059D800D1124082F1062DDCF9C3611F4EA
:100680001068D9CF9C3409F440C09836A1F2892F64
:100690008F7D85548330D8F1933609F45FC093374A
:1006A00009F46AC0933509F476C0943619F0993686
:1006B00009F0A2C0F70117FF98C061917191819173
:1006C00091917F011F7697FF03C00E947305106808
:1006D0002AE030E04E014FEF841A940AA4010E94F0
:1006E0001505682E681816FFD2C0812F8E7F6714FB
:1006F00008F0CCC014FF1DC112FD11C11E7E972C45
:10070000812F867809F4CEC00FC131E094CF311526
:1007100009F1F8E0EF0EF11C8FE3898391E0692E77
:10072000712C4E018FEF881A980A1F7713FD04C0B1
:100730006016710408F43FC06114710409F042C0EE
:10074000011509F447CFB50180E290E00E94D4047E
:100750000150F6CF44E0E40EF11CDECFF7018081BA
:100760008983F2E0EF0EF11C81E0682E712C4E01BE
:100770004FEF841A940AD9CFF701819091907F01AD
:10078000672D70E016FD02C06FEF7FEFC4010E947D
:10079000C9043C01CACFF701819091907F01672D78
:1007A00070E016FD02C06FEF7FEFC4010E94BE042F
:1007B0003C011068BBCFB50180E290E00E94D404F8
:1007C0000150B6CFF40117FD859117FF81914F01BC
:1007D000B50190E00E94D40481E0011101C080E0E5
:1007E000081BF1E06F1A7108A7CF61917191872FF3
:1007F000880F880B982F65CF9537C9F41F7E1C870B
:100800002AE030E0FC85F7FF3BC0F7016191719170
:10081000819191917F014E014FEF841A940AA401B6
:100820000E941505682E68181C851F775CCF812FE4
:10083000897F8C87903799F058F49835B9F09F36B6
:10084000E1F0F501868197812C96EFE00C949A05F2
:100850009837B9F714FD06C020E130E0D3CF9C856E
:1008600090619C87EC85E460EC87F6CF14FF02C0B2
:1008700016601C8720E132E0C5CF28E030E0C2CF0F
:10088000F7016191719180E090E0C4CF182F962C10
:1008900014FF36CFFE01E60DF11D8081803309F093
:1008A00041C0197E13FD0EC010FF4FC0762C90166C
:1008B00018F4700E7918902E802F8919091508F4F4
:1008C00080E0980E901608F042C0091914FF41C04C
:1008D000B50180E390E00E94D40412FF09C088E5CE
:1008E00090E011FD02C088E790E0B5010E94D404B9
:1008F0006714D0F14E018FEF881A980A6A94FE01AE
:100900003296E60DF11D3F01F30182913F01B501E1
:1009100090E00E94D40468147904B1F711CF972CA9
:10092000182FB8CF12FD02C09394BCCF9394939428
:10093000B9CF972C182FE4CEB50180E290E00E9449
:10094000D40483948016C0F3B7CF892CFBCF00E08A
:10095000BDCF812F867861F280E211FD8BE217FD19
:100960008DE2B50190E0C2CFB50180E390E00E9436
:10097000D4047A94BDCF8FEF9FEF66CFFC01059032
:10098000615070400110D8F7809590958E0F9F1F91
:100990000895FC016150704001900110D8F78095D6
:1009A00090958E0F9F1F0895A3E0B0E0EAEDF4E06C
:1009B0000C948A05182F99836A837B83DB01139635
:1009C0008C9181FD09C01FEFBFEFB983812F998101
:1009D0002396E3E00C94A60582FF1BC0EA81FB810D
:1009E00026813781848195812817390754F4019035
:1009F000F081E02DCF010196AA81BB818D939D935B
:100A00001083EA81FB818681978101968683978393
:100A1000DDCFAA81BB811896ED91FD911A97BD019A
:100A2000812F0995892B69F3CECFFA01AA272830A7
:100A300051F1203181F1E8946F936E7F6E5F7F4FAB
:100A40008F4F9F4FAF4FB1E03ED0B4E03CD0670F27
:100A5000781F891F9A1FA11D680F791F8A1F911D7A
:100A6000A11D6A0F711D811D911DA11D20D009F4CA
:100A700068943F912AE0269F11243019305D31930C
:100A8000DEF6CF010895462F4770405D4193B3E0F5
:100A90000FD0C9F7F6CF462F4F70405D4A3318F09C
:100AA000495D31FD4052419302D0A9F7EACFB4E04D
:100AB000A6959795879577956795BA95C9F7009705
:100AC0006105710508959B01AC010A2E06945795A6
:100AD000479537952795BA95C9F7620F731F841FFD
:100AE000951FA01D089590958095709561957F4FF5
:100AF0008F4F9F4F08952F923F924F925F926F9228
:100B00007F928F929F92AF92BF92CF92DF92EF929D
:100B1000FF920F931F93CF93DF93CDB7DEB7CA1B1E
:100B2000DB0B0FB6F894DEBF0FBECDBF09942A8849
:100B3000398848885F846E847D848C849B84AA84F1
:100B4000B984C884DF80EE80FD800C811B81AA817E
:100B5000B981CE0FD11D0FB6F894DEBF0FBECDBF49
:080B6000ED010895F894FFCFA8
:100B680024002500230004000000000000002400E9
:100B780025002300030000000000000024002500D9
:100B880023000200000000000000240025002300CC
:100B980001000000000000002400250023000000E0
:100BA8000000000000002A002B00290007000000B8
:100BB80000000000427574746F6E3A20257500536A
:100BC8006C696465722025753A20256C75252500A9
:00000001FF
