:100000000C9434000C9451000C9451000C94510049
:100010000C9451000C9451000C9451000C949500D8
:100020000C9451000C9451000C9451000C9451000C
:100030000C9451000C9451000C9451000C945100FC
:100040000C9451000C9451000C942A010C9404015E
:100050000C9451000C9451000C9451000C945100DC
:100060000C9451000C94510011241FBECFEFD8E026
:10007000DEBFCDBF11E0A0E0B1E0EEE8F9E002C0E4
:1000800005900D92A830B107D9F722E0A8E0B1E0C1
:1000900001C01D92A031B207E1F70E94B8000C9494
:1000A000C5040C94000080E480937C00EAE7F0E053
:1000B00087E0808380818068808308958F7080646A
:1000C00080937C00EAE7F0E080818064808308957B
:1000D00080917A00002486FF0394802D08958091FA
:1000E000780020917900922F08950E945E000E946E
:1000F00068008115E1F30C946F0082E08093B000FA
:1001000094E09093B1008093700089EF8093B300E6
:1001100008952FB7F89460910801709109018091BA
:100120000A0190910B012FBF08951F921FB61F92D5
:1001300011248F939F93AF93BF9380910801909167
:100140000901A0910A01B0910B010196A11DB11DF9
:100150008093080190930901A0930A01B0930B01C9
:10016000BF91AF919F918F911F901FBE1F901895C7
:10017000CDB7DEB7AC970FB6F894DEBF0FBECDBFDC
:100180000E947D000E94530060E875E280E090E0EC
:100190000E94550178940E9489004B015C0100E0A7
:1001A00010E068017E012FEFE21AF20A0E94890036
:1001B0002B013C01CB01D30188199909AA09BB097C
:1001C00084369105A105B105B0F01F930F93DF921E
:1001D000CF9280E091E09F938F93FF92EF920E94E5
:1001E000C801C7010E9494010FB6F894DEBF0FBE8C
:1001F000CDBF4201530180E00E9475006C0181E097
:100200000E9475008C01D2CF8F938FB78F939F93ED
:10021000EF93FF93E0918E01F0E0E057FE4F808175
:100220008093C60080918E0101968F7780938E0116
:1002300090918F0180918E01981305C08091C1002B
:100240008F7D8093C100FF91EF919F918F918FBF20
:100250008F9118951F921FB61F9211242F938F9381
:100260009F93EF93FF9380910D0120910C0190E0FB
:1002700083958F7790E02817190671F0E0910D01B2
:10028000F0E08091C600E25FFE4F808380910D0117
:1002900001968F7780930D01FF91EF919F918F9140
:1002A0002F911F901FBE1F9018959B01AC0184E0F9
:1002B000220F331F441F551F8A95D1F760E074E267
:1002C00084EF90E00E94A601C901DA0101979093A2
:1002D000C5008093C400E1ECF0E0808188698083F0
:1002E000089520918F0190918E0130E023952F7712
:1002F00030E092171306B9F030918F0120918E01F2
:10030000E0918F01F0E0E057FE4F808380918F01F4
:1003100001968F7780938F01321305C08091C100C1
:1003200080628093C1000895CF93DF93EC018881B0
:10033000811108C08DE00E9471018AE0DF91CF91A8
:100340000C94710121960E947101F1CFA1E21A2E45
:10035000AA1BBB1BFD010DC0AA1FBB1FEE1FFF1F69
:10036000A217B307E407F50720F0A21BB30BE40BB9
:10037000F50B661F771F881F991F1A9469F7609500
:100380007095809590959B01AC01BD01CF010895BA
:10039000AEE0B0E0EEECF1E00C949E0486E08C83DD
:1003A0002B893C8929833A838FEF9FE78D839E8336
:1003B000AE01495E5F4F6D897E89CE0101960E9434
:1003C000EC01EF81F8852B893C89E20FF31F108245
:1003D0002E96E2E00C94BA04ACE0B0E0E2EFF1E07B
:1003E0000C9491045C016B017A01FC011682178266
:1003F000838181FFD3C12AE0522EF5012381F601CA
:1004000023FD859123FF81916F01811509F42CC192
:10041000853239F423FD959123FF91916F01953237
:1004200029F4B50190E00E94E703E7CF30E0712C9A
:1004300000E010E0103210F59B32C9F050F4903219
:10044000B9F09332C9F09E3261F516FD0DC110640A
:1004500005C09D3279F0903399F41160F60123FDC7
:10046000959123FF91916F019111E4CF23C0126008
:100470001460F4CF1860F2CF1061F0CF17FD1AC0EE
:1004800080ED890F8A30F8F616FF05C0759C800D47
:100490001124782EE3CF059D800D1124082F1062C2
:1004A000DDCF9C3611F41068D9CF9C3409F440C0DC
:1004B0009836A1F2892F8F7D85548330D8F19336F9
:1004C00009F45FC0933709F46AC0933509F476C024
:1004D000943619F0993609F0A2C0F70117FF98C0B9
:1004E00061917191819191917F011F7697FF03C076
:1004F0000E94860410682AE030E04E014FEF841A13
:10050000940AA4010E942804682E681816FFD2C01D
:10051000812F8E7F671408F0CCC014FF1DC112FD1F
:1005200011C11E7E972C812F867809F4CEC00FC191
:1005300031E094CF311509F1F8E0EF0EF11C8FE3B3
:10054000898391E0692E712C4E018FEF881A980AE9
:100550001F7713FD04C06016710408F43FC06114D6
:10056000710409F042C0011509F447CFB50180E2DA
:1005700090E00E94E7030150F6CF44E0E40EF11C46
:10058000DECFF70180818983F2E0EF0EF11C81E07C
:10059000682E712C4E014FEF841A940AD9CFF701BF
:1005A000819091907F01672D70E016FD02C06FEF82
:1005B0007FEFC4010E94DC033C01CACFF7018190A8
:1005C00091907F01672D70E016FD02C06FEF7FEF05
:1005D000C4010E94D1033C011068BBCFB50180E289
:1005E00090E00E94E7030150B6CFF40117FD85911A
:1005F00017FF81914F01B50190E00E94E70381E070
:10060000011101C080E0081BF1E06F1A7108A7CF4B
:1006100061917191872F880F880B982F65CF95373F
:10062000C9F41F7E1C872AE030E0FC85F7FF3BC041
:10063000F70161917191819191917F014E014FEF8D
:10064000841A940AA4010E942804682E68181C8544
:100650001F775CCF812F897F8C87903799F058F472
:100660009835B9F09F36E1F0F501868197812C9697
:10067000EFE00C94AD049837B9F714FD06C020E103
:1006800030E0D3CF9C8590619C87EC85E460EC875B
:10069000F6CF14FF02C016601C8720E132E0C5CF00
:1006A00028E030E0C2CFF7016191719180E090E0E5
:1006B000C4CF182F962C14FF36CFFE01E60DF11D86
:1006C0008081803309F041C0197E13FD0EC010FFF8
:1006D0004FC0762C901618F4700E7918902E802F3B
:1006E0008919091508F480E0980E901608F042C0A8
:1006F000091914FF41C0B50180E390E00E94E703AF
:1007000012FF09C088E590E011FD02C088E790E083
:10071000B5010E94E7036714D0F14E018FEF881AEC
:10072000980A6A94FE013296E60DF11D3F01F3012D
:1007300082913F01B50190E00E94E70368147904BB
:10074000B1F711CF972C182FB8CF12FD02C0939498
:10075000BCCF93949394B9CF972C182FE4CEB501C6
:1007600080E290E00E94E70383948016C0F3B7CF45
:10077000892CFBCF00E0BDCF812F867861F280E22B
:1007800011FD8BE217FD8DE2B50190E0C2CFB501FE
:1007900080E390E00E94E7037A94BDCF8FEF9FEF54
:1007A00066CFFC010590615070400110D8F780952C
:1007B00090958E0F9F1F0895FC016150704001902D
:1007C0000110D8F7809590958E0F9F1F0895A3E094
:1007D000B0E0EDEEF3E00C949D04182F99836A834A
:1007E0007B83DB0113968C9181FD09C01FEFBFEF66
:1007F000B983812F99812396E3E00C94B90482FF99
:100800001BC0EA81FB81268137818481958128176D
:10081000390754F40190F081E02DCF010196AA81AF
:10082000BB818D939D931083EA81FB8186819781A3
:10083000019686839783DDCFAA81BB811896ED91BF
:10084000FD911A97BD01812F0995892B69F3CECFB0
:10085000FA01AA27283051F1203181F1E8946F93F1
:100860006E7F6E5F7F4F8F4F9F4FAF4FB1E03ED097
:10087000B4E03CD0670F781F891F9A1FA11D680F35
:10088000791F8A1F911DA11D6A0F711D811D911D68
:10089000A11D20D009F468943F912AE0269F1124DD
:1008A0003019305D3193DEF6CF010895462F477041
:1008B000405D4193B3E00FD0C9F7F6CF462F4F709C
:1008C000405D4A3318F0495D31FD4052419302D0FA
:1008D000A9F7EACFB4E0A6959795879577956795A0
:1008E000BA95C9F700976105710508959B01AC01A0
:1008F0000A2E06945795479537952795BA95C9F7C7
:10090000620F731F841F951FA01D089590958095F9
:10091000709561957F4F8F4F9F4F08952F923F9213
:100920004F925F926F927F928F929F92AF92BF92FF
:10093000CF92DF92EF92FF920F931F93CF93DF93AB
:10094000CDB7DEB7CA1BDB0B0FB6F894DEBF0FBE08
:10095000CDBF09942A88398848885F846E847D8455
:100960008C849B84AA84B984C884DF80EE80FD8057
:100970000C811B81AA81B981CE0FD11D0FB6F894CD
:0E098000DEBF0FBECDBFED010895F894FFCF8E
:08098E002575203A20257500B3
:00000001FF
